:100000000C945D000C9485000C9485000C94850084
:100010000C9485000C9485000C9485000C9485004C
:100020000C9485000C9485000C9485000C9485003C
:100030000C9485000C9485000C9485000C9485002C
:100040000C946A040C9485000C9439040C941304E9
:100050000C9485000C9485000C9485000C9485000C
:100060000C9485000C9485000000000025002800F9
:100070002B0000000000240027002A0001020408D1
:100080001020408001020408102001020408102002
:10009000040404040404040402020202020203032E
:1000A000030303030000000800020100000304072B
:1000B0000000000000000000400811241FBECFEF28
:1000C000D8E0DEBFCDBF11E0A0E0B1E0E0EFF0E1AD
:1000D00002C005900D92AC31B107D9F723E0ACE135
:1000E000B1E001C01D92A23AB207E1F710E0CDE500
:1000F000D0E004C02197FE010E947008CC35D107E2
:10010000C9F70E94B4040C946D080C940000E091AF
:100110004502F09146020190F081E02D682F85E4C0
:1001200092E009948BE891E00197F1F70895FC01C2
:10013000538D448D252F30E0842F90E0821B930B4C
:10014000541710F0CF96089501970895FC01918DF2
:10015000828D981759F0A28DAE0FBF2FB11D5D96FD
:100160008C91928D9F5F928F90E008958FEF9FEF1B
:100170000895FC01918D828D981731F0828DE80FE2
:10018000F11D858D90E008958FEF9FEF0895FC019C
:10019000918D828D981B892F90E00895FC01A48D8C
:1001A000A80FB92FB11DA35EBE4F2C91848D90E096
:1001B00001968F739927848FA689B7892C93A0897C
:1001C000B1898C91837080648C93938D848D981306
:1001D00006C00288F389E02D80818F7D8083089599
:1001E000EF92FF920F931F93CF93DF93EC0181E087
:1001F000888F9B8D8C8D98131AC0E889F98980812E
:1002000085FF15C09FB7F894EE89FF896083E88960
:10021000F98980818370806480839FBF81E090E052
:10022000DF91CF911F910F91FF90EF900895F62EDF
:100230000B8D10E00F5F1F4F0F731127E02E8C8D79
:100240008E110CC00FB607FCFACFE889F9898081BE
:1002500085FFF5CFCE010E94CE00F1CFEB8DEC0FE4
:10026000FD2FF11DE35EFE4FF0829FB7F8940B8FD8
:10027000EA89FB8980818062CFCFCF93DF93EC0145
:10028000888D8823B9F0AA89BB89E889F9898C917E
:1002900085FD03C0808186FD0DC00FB607FCF7CF3A
:1002A0008C9185FFF2CF808185FFEDCFCE010E943A
:1002B000CE00E9CFDF91CF91089585E492E00E94CE
:1002C000C70021E0892B09F420E0822F089580E007
:1002D00090E0892B29F00E945D0181110C940000AF
:1002E0000895AF92BF92CF92DF92EF92FF920F9359
:1002F0001F93CF93DF936C017B018B01040F151FBC
:10030000EB015E01AE18BF08C017D10759F0699123
:10031000D601ED91FC910190F081E02DC601099587
:10032000892B79F7C501DF91CF911F910F91FF9034
:10033000EF90DF90CF90BF90AF90089590E0FC01D8
:10034000EC55FF4F2491FC01E458FF4F3491FC0120
:10035000E057FF4FE491EE23C9F0222339F0233018
:1003600001F1A8F4213019F1223029F1F0E0EE0F6B
:10037000FF1FE859FF4FA591B4918FB7F894EC9106
:10038000611126C030953E233C938FBF08952730DE
:10039000A9F02830C9F0243049F7809180008F7D82
:1003A00003C0809180008F7780938000DFCF84B579
:1003B0008F7784BDDBCF84B58F7DFBCF8091B0007C
:1003C0008F778093B000D2CF8091B0008F7DF9CF2E
:1003D0003E2BDACFCF93DF9390E0FC01E458FF4F40
:1003E000249180579F4FFC0184918823D1F090E0A5
:1003F000880F991FFC01EE58FF4FA591B491FC01A5
:10040000E859FF4FC591D49161110EC09FB7F89480
:100410008C91E22FE0958E238C932881E223E88350
:100420009FBFDF91CF9108958FB7F894EC91E22BA5
:10043000EC938FBFF6CFCF93DF93EC0161E089E0BF
:100440000E94EA01209731F460E089E0DF91CF91CA
:100450000C949E01CF3FD10511F461E0F6CFEDEA97
:10046000F0E0E491E33029F140F4E130B1F0E23022
:10047000D9F0C038D1058CF7E7CFE73021F1E8306B
:1004800051F1E430B1F78091800080628093800068
:10049000D0938B00C0938A0004C084B5806884BD6B
:1004A000C7BDDF91CF91089584B5806284BDC8BD7A
:1004B000F8CF80918000806880938000D09389007D
:1004C000C0938800EECF8091B00080688093B00028
:1004D000C093B300E6CF8091B00080628093B000FB
:1004E000C093B400DECF789484B5826084BD84B5B7
:1004F000816084BD85B5826085BD85B5816085BD1F
:10050000EEE6F0E0808181608083E1E8F0E0108237
:10051000808182608083808181608083E0E8F0E078
:10052000808181608083E1EBF0E080818460808362
:10053000E0EBF0E0808181608083EAE7F0E0808199
:1005400084608083808182608083808181608083F9
:100550008081806880831092C10008953FB7F8942D
:100560008091210190912201A0912301B091240159
:1005700026B5A89B05C02F3F19F00196A11DB11DFE
:100580003FBFBA2FA92F982F8827BC01CD01620F3A
:10059000711D811D911D42E0660F771F881F991FF5
:1005A0004A95D1F708958F929F92AF92BF92CF92C2
:1005B000DF92EF92FF924B015C010E94AE026B0151
:1005C0007C010E94AE026C197D098E099F09683E6C
:1005D000734081059105A8F321E0821A9108A108D2
:1005E000B10888EEC80E83E0D81EE11CF11C81140E
:1005F0009104A104B10429F7FF90EF90DF90CF9010
:10060000BF90AF909F908F9008951F93CF93DF93EB
:10061000182FC3E0D0E061E0812F0E949E016EE1BF
:1006200070E080E090E00E94D30260E0812F0E94A1
:100630009E016EE170E080E090E00E94D30221977D
:1006400051F7DF91CF911F9108952FB7F8946091E2
:100650001D0170911E0180911F01909120012FBFFB
:100660000895809141029091420201969093420236
:100670008093410285E10C948700209134013091F0
:10068000350180913F02909140022032310511F4F2
:10069000807F08952034310511F4807E089520383C
:1006A000310511F4807C08952115314009F48078DA
:1006B000089585E492E00E94C700892BD1F385E478
:1006C00092E00E94A6000895CF93C82F0E9459037C
:1006D000803251F484E10E9487008C2F0E948700B1
:1006E00080E1CF910C948700809141029091420269
:1006F0000196909342028093410285E1F2CF0E94DD
:100700005903803231F484E10E94870080E10C9427
:10071000870080914102909142020196909342029B
:100720008093410285E1F3CF0F931F93CF93DF9323
:100730008C01CCE3D1E0CE018C539140801791071E
:1007400024F40E9459038993F6CFDF91CF911F9132
:100750000F9108958EBD00000DB407FEFDCF8EB53C
:1007600008951F93CF93DF93162FD42FC22F0E948B
:10077000AA03812F0E94AA038D2F0E94AA038C2F07
:10078000DF91CF911F910C94AA03EF92FF920F93E8
:100790001F93CF93DF93EC018B01CB010E94940355
:1007A00060E087E00E949E018CE3E82E81E0F82E55
:1007B0000C0F1D1FC017D10781F0F70121917F0198
:1007C0004C2F6D2F80EC0E94B1036DE270E080E051
:1007D00090E00E94D3022196EDCF61E087E00E9475
:1007E0009E0180E1DF91CF911F910F91FF90EF90DB
:1007F0000895CF93DF93D82FC92F60E087E00E9440
:100800009E0120E04D2F6C2F8CE40E94B1036EE11D
:1008100070E080E090E00E94D30261E087E0DF9129
:10082000CF910C949E011F920F920FB60F9211243C
:100830002F933F934F935F936F937F938F939F93E8
:10084000AF93BF93EF93FF9385E492E00E94CE00B5
:10085000FF91EF91BF91AF919F918F917F916F9198
:100860005F914F913F912F910F900FBE0F901F906E
:1008700018951F920F920FB60F9211242F938F93FA
:100880009F93EF93FF93E0915502F0915602808180
:10089000E0915B02F0915C0282FD1AC09081809130
:1008A0005E028F5F20915F02821741F0E0915E024D
:1008B000F0E0EB5BFD4F958F80935E02FF91EF912F
:1008C0009F918F912F910F900FBE0F901F901895B1
:1008D0008081F4CF1F920F920FB60F9211242F93A5
:1008E0003F938F939F93AF93BF9380911D019091FE
:1008F0001E01A0911F01B091200130911C0123E045
:10090000230F2D3758F50196A11DB11D20931C0111
:1009100080931D0190931E01A0931F01B0932001AD
:100920008091210190912201A0912301B091240195
:100930000196A11DB11D8093210190932201A093E6
:100940002301B0932401BF91AF919F918F913F916B
:100950002F910F900FBE0F901F90189526E8230F30
:100960000296A11DB11DD2CF0E947302E0915502E3
:10097000F091560282E08083E0915102F0915202A0
:100980001082E0915302F091540287E68083109226
:100990005D02E0915902F0915A0286E08083E09175
:1009A0005702F0915802808180618083E091570264
:1009B000F0915802808188608083E0915702F09125
:1009C0005802808180688083E0915702F09158023C
:1009D00080818F7D808361E087E00E94EA0187E06B
:1009E00090E00E94050361E088E00E94EA0188E04F
:1009F00090E00E94050361E089E00E94EA0189E03D
:100A000090E00E9405030AE9402E00E0502E86E89F
:100A1000682E80E0782E90E0A92E90E0B92E8824F0
:100A20008394912CC0914302D091440261E02097BD
:100A300009F460E087E00E949E010091410210915C
:100A4000420261E00115110509F460E088E00E94AE
:100A50009E010E942503C0902501D0902601E090C0
:100A60002701F09028019B01AC012C193D094E098A
:100A70005F0969017A0138E2C316D104E104F10487
:100A8000E0F06093250170932601809327019093F5
:100A900028018091010190910001813C20F0919505
:100AA0009093000102C08032D0F390910001890F31
:100AB0008093010190E00E941B0285E492E00E9475
:100AC000C700892B09F40BC20E945903813509F430
:100AD0007AC208F0A1C0813409F431C188F48033AE
:100AE00009F40EC1813309F412C1803209F0BBC28E
:100AF0000F5F1F4F109342020093410285E1E4C152
:100B0000853409F433C1803509F435C1823409F0E4
:100B1000AAC284E190E00E94940320913C012093BA
:100B2000290180913D0180932A0180913E018093AB
:100B30002B0180913F0180932C0180914001809393
:100B40002D018091410180932E018091420180937B
:100B50002F01809143018093300180914401809363
:100B600031018091460190E0982F8827309147010C
:100B7000830F911D9093330180933201809148013E
:100B800090E0982F882730914901830F911D909311
:100B900035018093340180914A0190E0982F882795
:100BA00030914B01830F911D909337018093360153
:100BB00080914C0190E0B0E0A0E0BA2FA92F982FCF
:100BC000882730914D01830F911DA11DB11DDC01BE
:100BD0009927882740914E0150E0542F4427052E35
:100BE000000C660B770B840F951FA61FB71F309163
:100BF0004F01830F911DA11DB11D8093380190936A
:100C00003901A0933A01B0933B0181E0203E08F402
:100C100080E080933E0278C0813609F423C1C0F49D
:100C2000863509F4C1C1803609F41AC1853509F049
:100C30001AC20E945903C82F0E94590390E0982FAE
:100C400088278C0F911D9093400280933F025CC0D7
:100C5000843709F450C1853709F4E4C1843609F0BA
:100C600002C20E945903C82FD0E0DC2FCC270E947B
:100C70005903C80FD11D0E945903863409F0F9C0E9
:100C8000CE010E9494030E945903803209F030CFB4
:100C900084E10E9487000E943D036C013CE3E32E47
:100CA00031E0F32EC7018C5391408C179D070CF057
:100CB000DCC00E943D038C159D0531F0C6010E94E9
:100CC000F9030E943D036C0100913F021091400224
:100CD000F7012081402F612F80E40E94B103F701CA
:100CE0002181402F612F88E40E94B1030F5F1F4FC5
:100CF0001093400200933F02F2E0EF0EF11CD2CFBE
:100D000010924202109241020E947F03E8C00E94AA
:100D10005903803209F0ECCE84E10E948700E09113
:100D20004502F09146020280F381E02D47E050E059
:100D300064E171E085E492E0099580E1C5C00E941C
:100D40005903813879F020F4803841F080E007C001
:100D5000823851F08339D1F783E501C082E00E94E7
:100D60006403BDC081E0FBCF82E1F9CF85E090E074
:100D70000E949403C9CFCD2B39F660913E028AE0E0
:100D80000E949E0161E08AE00E94EA01CFB7F894D8
:100D900080913D02811125C0F2018491F30194916B
:100DA000E82FF0E0EE0FFF1FEE58FF4FA591B49132
:100DB0008C91982321F461E08AE00E949E0161E019
:100DC0008AE00E94EA018CB580618CBD8CB580649C
:100DD0008CBD61E08DE00E94EA0161E08BE00E9441
:100DE000EA0180913D028F5F80933D02CFBF8091E9
:100DF0003C02882351F08FB7F89490913C029130D7
:100E000021F49DB39DB39DBB8FBF83E58CBD1DBCFD
:100E100060E08DE00E949E0164E170E080E090E07F
:100E20000E94D302C0913E0261E06C278AE00E94DA
:100E30009E010E9492006C2F8AE00E949E0162E354
:100E400070E080E090E00E94D30220E040E063E5A3
:100E50008CEA0E94B103909244028092430254CFE4
:100E60000E9459030E9459034FCFC6010E94F90303
:100E700064CF853409F096C0809136019091370196
:100E80008C179D0790F000913F0210914002000FD7
:100E9000111FC132D105D8F060E270E0C8010E9494
:100EA000C503005E1F4FA097F4CF0F5F1F4F109335
:100EB000420200934102C1E10E945903803269F469
:100EC00084E10E9487008C2F0E94870008C0BE0129
:100ED000C8010E94C503C0E1EFCF0E943103A114F5
:100EE000B10409F49FCD0E945D01882309F49ACDD5
:100EF0000E94000097CD0E945903082F0E945903B9
:100F0000F82E0E945903D82F0E945903803219F0FD
:100F10000E943103E4CF10E0102F00270F0D111DA8
:100F200084E10E948700D63429F5D0E0C0E0C017E4
:100F3000D1070CF002CF40913F026091400220E0C7
:100F400080E20E94B1030E94870040913F026091BD
:100F5000400220E088E20E94B1030E948700809155
:100F60003F029091400201969093400280933F028D
:100F70002296DDCFD534B1F4C0913F02D09140022A
:100F8000CC0FDD1F0C0F1D1F0C171D0709F4D5CE4C
:100F90002FEF4C2F6D2F80EA0E94B1030E94870033
:100FA0002196F2CF81E190CF84E090E00E949403FB
:100FB00020913F0140913E0160913D0180913C01B3
:100FC0000E94B103CCCE10924202109241029FB710
:100FD000F89480913D02882319F0815080933D025E
:100FE00080913D02811105C08CB58F7B8CBD109224
:100FF0003C029FBF60E08BE00E94EA0160E08DE070
:101000000E94EA0160913E0281E068278AE00E9426
:101010009E0160E08AE00E94EA0110924402109270
:10102000430272CE0E945903803209F061CD84E1FF
:101030000E94870020E040E060E080E30E94B1036E
:101040000E94870020E041E060E080E30E94B1035D
:101050000E94870020E042E060E080E30E94B1034C
:101060000E9487006ACE0F5F1F4F109342020093C9
:1010700041020E945903803209F040CD82E124CF21
:10108000E5E4F2E01382128288EE93E0A0E0B0E0A3
:1010900084839583A683B78386E091E091838083E0
:1010A00085EC90E09587848784EC90E0978786872D
:1010B00080EC90E0918B808B81EC90E0938B828B25
:1010C00082EC90E0958B848B86EC90E0978B868BFE
:1010D000118E128E138E148E0895F8940C94760847
:1010E000EE0FFF1F0590F491E02D0994F894FFCFC7
:1010F000088000000000F000710197003D01C7006A
:0C110000A600B90041565220495350008F
:00000001FF
