:100000000C945B000C9483000C9483000C9483008C
:100010000C9483000C9483000C9483000C94830054
:100020000C9483000C9483000C9483000C94830044
:100030000C9483000C9483000C9483000C94830034
:100040000C945E070C9483000C942D070C94070706
:100050000C9483000C9483000C9483000C94830014
:100060000C9483000C948300081F0A0C0E000000FF
:100070000023002600290000000000250028002B96
:100080000000000000240027002A000404040404E7
:100090000404040202020202020303030303030135
:1000A000020408102040800102040810200102040C
:1000B00008102000DF0711241FBECFEFD8E0DEBFFD
:1000C000CDBF11E0A0E0B1E0EAE9FAE102C005909D
:1000D0000D92A833B107D9F723E0A8E3B1E001C03E
:1000E0001D92AA3CB207E1F710E0CBE5D0E004C0D6
:1000F0002197FE010E94450DCA35D107C9F70E941C
:10010000E3070C94140D0C940000CF93DF9390E060
:10011000FC01E156FF4F249185579F4FFC018491CC
:100120008823C1F090E0880F991FFC01EF57FF4F23
:10013000C591D491FC01E958FF4FA591B4919FB7A7
:10014000F8948881E22FE0958E2388838C91E823B0
:10015000EC939FBFDF91CF910895CF93DF93C82F8A
:100160000E948500D0E0FE01E156FF4FE491ACEB28
:10017000B3E0EC93FE01E557FF4FE491F0E0EE0FA2
:10018000FF1FE359FF4F8591949112969C938E9394
:1001900011971B961C921B971D961C921D971C96DF
:1001A0001C921C971A961C921A9719961C921997D2
:1001B00018961C92189717961C92179716961C92D1
:1001C000169715961C92159714961C9214971396D1
:1001D0001C92DF91CF910895E0915F02F09160024F
:1001E0000190F081E02D682F8FE592E00994FC01E9
:1001F000F894A181B28111968C911197908190957C
:10020000982311969C93A181B28112968C9112979A
:100210009081892B12968C9378940895FC01680F35
:10022000791FCA01E617F707C9F021918227282F05
:1002300022952827022E269526952025022E2695E2
:1002400020252770082E892F269507942795902D15
:1002500082270694279590258227E4CF0895FC01F4
:10026000538D448D252F30E0842F90E0821B930B1B
:10027000541710F0CF96089501970895FC01918DC1
:10028000828D981759F0A28DAE0FBF2FB11D5D96CC
:100290008C91928D9F5F928F90E008958FEF9FEFEA
:1002A0000895FC01918D828D981731F0828DE80FB1
:1002B000F11D858D90E008958FEF9FEF0895FC016B
:1002C000918D828D981B892F90E00895FC01A48D5B
:1002D000A80FB92FB11DA35EBE4F2C91848D90E065
:1002E00001968F739927848FA689B7892C93A0894B
:1002F000B1898C91837080648C93938D848D9813D5
:1003000006C00288F389E02D80818F7D8083089567
:10031000EF92FF920F931F93CF93DF93EC0181E055
:10032000888F9B8D8C8D98131AC0E889F9898081FC
:1003300085FF15C09FB7F894EE89FF896083E8892F
:10034000F98980818370806480839FBF81E090E021
:10035000DF91CF911F910F91FF90EF900895F62EAE
:100360000B8D10E00F5F1F4F0F731127E02E8C8D48
:100370008E110CC00FB607FCFACFE889F98980818D
:1003800085FFF5CFCE010E946601F1CFEB8DEC0F1A
:10039000FD2FF11DE35EFE4FF0829FB7F8940B8FA7
:1003A000EA89FB8980818062CFCFCF93DF93EC0114
:1003B000888D8823B9F0AA89BB89E889F9898C914D
:1003C00085FD03C0808186FD0DC00FB607FCF7CF09
:1003D0008C9185FFF2CF808185FFEDCFCE010E9409
:1003E0006601E9CFDF91CF9108958FE592E00E94F9
:1003F0005F0121E0892B09F420E0822F089580E03D
:1004000090E0892B29F00E94F50181110C940000E5
:100410000895AF92BF92CF92DF92EF92FF920F9327
:100420001F93CF93DF936C017B018B01040F151F8A
:10043000EB015E01AE18BF08C017D10759F06991F2
:10044000D601ED91FC910190F081E02DC601099556
:10045000892B79F7C501DF91CF911F910F91FF9003
:10046000EF90DF90CF90BF90AF900895789484B5CF
:10047000826084BD84B5816084BD85B5826085BDA0
:1004800085B5816085BDEEE6F0E080818160808386
:10049000E1E8F0E010828081826080838081816069
:1004A0008083E0E8F0E0808181608083E1EBF0E030
:1004B000808184608083E0EBF0E0808181608083D4
:1004C000EAE7F0E0808184608083808182608083BD
:1004D0008081816080838081806880831092C100E8
:1004E0000895880F991F880F991F05970197F1F7B5
:1004F00008950F931F93CF93DF93FC011081C18167
:10050000D281F8948A81012F009580238A83898182
:10051000812B898383E090E00E947102898180238E
:1005200089838A81812B8A838AE090E00E9471020C
:10053000C881789485E390E00E9471021C2381E0D9
:1005400009F480E0DF91CF911F910F910895EF9210
:10055000FF920F931F93CF93DF937C0108E010E08D
:10056000C0E0D1E0C7010E9479028111CD2BDD0FDF
:1005700001501109B9F78C2FDF91CF911F910F9185
:10058000FF90EF9008951F93CF93DF93FC011081AC
:10059000C181D281912F909560FF16C0F8948A8115
:1005A00089238A838981812B89838AE090E00E9454
:1005B00071028A81182B1A83789487E390E0DF9187
:1005C000CF911F910C947102F8948A8189238A83B8
:1005D0008981812B898381E490E00E9471028A8164
:1005E000182B1A83789485E090E0E9CFEF92FF9280
:1005F0000F931F93CF93DF937C01062FC8E0D0E0C9
:1006000011E061E0802F812309F460E0C7010E94BE
:10061000C302110F2197A9F7C701DF91CF911F9155
:100620000F91FF90EF900C94F700FF920F931F93A0
:10063000CF93DF93FC011081C181D281F8948A812C
:10064000812B8A838981012F009580238983789467
:100650008DE7F82EFA94FF2079F182E090E00E9475
:10066000710288818123B1F3F8948A8180238A837F
:100670008981812B8983789480EE91E00E947102B8
:10068000F8948A81812B8A8389818023898386E4F7
:1006900090E00E94710288811823C1E009F0C0E057
:1006A00078948AE991E00E9471028C2FDF91CF91BA
:1006B0001F910F91FF900895C0E0F7CF8F929F9206
:1006C000AF92BF92CF92DF92EF92FF920F931F9360
:1006D000CF93DF9300D01F92CDB7DEB78C01A62E4B
:1006E000F72EE42EB22E80915D0290915E020E9460
:1006F0001503C0905D02D0905E020115110509F44A
:1007000082C065E5C6010E94F602480188E0880EB5
:10071000911CF80161918F01C6010E94F602081533
:100720001905B9F78AEA8983EA821B8200915D0282
:1007300010915E026AEAC8010E94F6026A81C8014D
:100740000E94F6026B81C8010E94F602C8010E9455
:10075000F70050E040E063E070E0CE0101960E94B7
:100760000E016C010A2D1F2DBE0CFE2C902EA12E09
:1007700080915D0290915E020E94A702F801819330
:100780008F01A60161E070E0892D9A2D0E940E0173
:100790006C01F3948F2D877011F580905D0290901D
:1007A0005E02C4010E94A7028983C4010E94A702BD
:1007B0008A83A60170E060E090E080E00E940E0174
:1007C00080959095298130E08217130609F5892FCD
:1007D00099272A8128171906D9F4D12CC12C8F2DDD
:1007E0008E19FB10C3CF0F900F900F90DF91CF9118
:1007F0001F910F91FF90EF90DF90CF90BF90AF903F
:100800009F908F90089565EAC6010E94F6028ACFF4
:1008100080E0E9CF3FB7F89480913D0190913E018F
:10082000A0913F01B091400126B5A89B05C02F3F84
:1008300019F00196A11DB11D3FBFBA2FA92F982F06
:100840008827BC01CD01620F711D811D911D42E001
:10085000660F771F881F991F4A95D1F708958F92C9
:100860009F92AF92BF92CF92DF92EF92FF924B0195
:100870005C010E940A046B017C010E940A046C194D
:100880007D098E099F09683E734081059105A8F393
:1008900021E0821A9108A108B10888EEC80E83E011
:1008A000D81EE11CF11C81149104A104B10429F7A4
:1008B000FF90EF90DF90CF90BF90AF909F908F9080
:1008C000089580915B0290915C02019690935C0286
:1008D00080935B0285E10C94EC00880F811D982FBA
:1008E000990F911D990F98279A7A8927982F929599
:1008F00098279C7C89270895CF93DF93C0915D0250
:10090000D0915E020E946D04682FCE010E94F60213
:1009100080915D0290915E020E94A702DF91CF91CB
:100920000C946D0420914F01309150018091570239
:10093000909158022032310511F4807F08952034BF
:10094000310511F4807E08952038310511F4807C42
:1009500008952115314009F4807808951F93CF93AD
:10096000DF93162FD42FC22F0E947C04812F0E9468
:100970007C048D2F0E947C048C2FDF91CF911F91DE
:100980000C947C048FE592E00E945F01892BD1F3E7
:100990008FE592E00E943E010895CF93C82F0E94F8
:1009A000C204803251F484E10E94EC008C2F0E943A
:1009B000EC0080E1CF910C94EC0080915B0290916F
:1009C0005C02019690935C0280935B0285E1F2CF1A
:1009D0000E94C204803231F484E10E94EC0080E184
:1009E0000C94EC0080915B0290915C0201969093D4
:1009F0005C0280935B0285E1F3CF0F931F93CF934B
:100A0000DF938C01C7E5D1E0CE0187559140801777
:100A1000910724F40E94C2048993F6CFDF91CF910D
:100A20001F910F910895EF92FF920F931F93CF9311
:100A3000DF93EC018B01CB010E94FD0487E5E82EDA
:100A400081E0F82E0C0F1D1FC017D10781F0F701B0
:100A500021917F014C2F6D2F80EC0E94AE046DE23E
:100A600070E080E090E00E942F042196EDCF80E1BD
:100A7000DF91CF911F910F91FF90EF9008959F927A
:100A8000AF92BF92CF92DF92EF92FF920F931F939C
:100A9000CF93DF9300D01F92CDB7DEB7A82EF92EEB
:100AA000962EE42E80915D0290915E020E941503C5
:100AB00065EA80915D0290915E020E94F60285E5F2
:100AC00089839A821B8200915D0210915E0265E526
:100AD000C8010E94F6026A81C8010E94F6026B8179
:100AE000C8010E94F602C8010E94F70050E040E0F1
:100AF00063E070E0CE0101960E940E016C010A2DA8
:100B00001F2DF12C93945801F80160810F5F1F4F46
:100B100080915D0290915E020E94F602A60161E062
:100B200070E0C5010E940E016C01C094D0948091C8
:100B30005D0290915E020E94A70296013327821700
:100B40001306E1F480915D0290915E020E94A7027B
:100B5000CD2CDD248C151D0489F480915D029091CB
:100B60005E020E94A702F80131979081891306C0A6
:100B7000C92CCF0CD12CF394EF10C5CF8F2D0F9033
:100B80000F900F90DF91CF911F910F91FF90EF90F9
:100B9000DF90CF90BF90AF909F900895FF920F93FA
:100BA0001F93CF93DF93CDB7DEB728970FB6F89496
:100BB000DEBF0FBECDBF062FF42EE62FF0E0E859C2
:100BC000FF4F1491212F209527702F5F412FBE01D9
:100BD0006F5F7F4F0E945E03982F882389F1898180
:100BE000982F9F73FF2031F092E0F91207C08F73A6
:100BF000982F90640130D1F49B7F18C0982F01305A
:100C0000A1F49B7F9068807C8068803C79F48FEFB2
:100C100089839A8342E06EE1CE0101960E943F05EE
:100C200091E0823069F090E00BC09068998341E0D8
:100C3000612FCE0101960E943F0591E0813099F726
:100C4000892F28960FB6F894DEBF0FBECDBFDF9177
:100C5000CF911F910F91FF900895FF920F931F93D3
:100C6000CF93DF93CDB7DEB728970FB6F894DEBFEA
:100C70000FBECDBF062FF42EE62FF0E0E859FF4F50
:100C80001491212F209527702F5F412FBE016F5F98
:100C90007F4F0E945E03982F882311F18981982F3E
:100CA0009F73FF2051F1906C013061F0998341E016
:100CB000612FCE0101960E943F0591E0813081F0C5
:100CC00090E00EC09FEF99838B73806C8A8342E023
:100CD0006EE1CE0101960E943F0591E0823081F7DE
:100CE000892F28960FB6F894DEBF0FBECDBFDF91D7
:100CF000CF911F910F91FF900895013011F48B73E4
:100D0000982F9068D3CF40914301811102C081E0B8
:100D1000482760E081E091E00C942D0680915D020F
:100D200090915E020E94150365EA80915D029091A8
:100D30005E020E94F6026AE580915D0290915E0279
:100D40000C94F602FC0101900020E9F73197AF0105
:100D5000481B590BE0915F02F09160020280F38121
:100D6000E02DBC018FE592E009948F929F92AF92A3
:100D7000BF920F931F93CF93DF93CDB7DEB7A197A9
:100D80000FB6F894DEBF0FBECDBF19A2423008F4F3
:100D90004AE08E010F5D1F4F842E912CB12CA12CA7
:100DA000A50194010E94230DE62FB901CA01EA3082
:100DB000F4F4E05DD801EE938D01232B242B252B39
:100DC00079F790E080E0109719F0CD010E94A2061B
:100DD000A1960FB6F894DEBF0FBECDBFDF91CF91C5
:100DE0001F910F91BF90AF909F908F900895E95CF5
:100DF000E1CFCF93DF930E94A206EC0180E291E065
:100E00000E94A2068C0F9D1FDF91CF9108951F9223
:100E10000F920FB60F9211242F933F934F935F932E
:100E20006F937F938F939F93AF93BF93EF93FF93B2
:100E30008FE592E00E946601FF91EF91BF91AF9123
:100E40009F918F917F916F915F914F913F912F91E2
:100E50000F900FBE0F901F9018951F920F920FB614
:100E60000F9211242F938F939F93EF93FF93E09111
:100E70006F02F09170028081E0917502F09176022C
:100E800082FD1AC09081809178028F5F2091790253
:100E9000821741F0E0917802F0E0E15AFD4F958F22
:100EA00080937802FF91EF919F918F912F910F90F6
:100EB0000FBE0F901F9018958081F4CF1F920F9254
:100EC0000FB60F9211242F933F938F939F93AF935D
:100ED000BF938091390190913A01A0913B01B0916B
:100EE0003C013091380123E0230F2D3758F501964E
:100EF000A11DB11D209338018093390190933A01CF
:100F0000A0933B01B0933C0180913D0190913E0143
:100F1000A0913F01B09140010196A11DB11D8093A8
:100F20003D0190933E01A0933F01B0934001BF91DA
:100F3000AF919F918F913F912F910F900FBE0F9086
:100F40001F90189526E8230F0296A11DB11DD2CF40
:100F5000EFE5F2E01382128288EE93E0A0E0B0E0C9
:100F600084839583A683B78382E191E09183808314
:100F700085EC90E09587848784EC90E0978786875E
:100F800080EC90E0918B808B81EC90E0938B828B56
:100F900082EC90E0958B848B86EC90E0978B868B2F
:100FA000118E128E138E148E089587E00E94AD006C
:100FB0008CEB93E090935E0280935D0208950E9413
:100FC000A8070C94D507CF93DF93CDB7DEB7299749
:100FD0000FB6F894DEBF0FBECDBF0E943602E0917F
:100FE0006F02F091700282E08083E0916B02F091D9
:100FF0006C021082E0916D02F0916E0287E68083B0
:1010000010927702E0917302F091740286E080837F
:10101000E0917102F0917202808180618083E091A1
:101020007102F0917202808188608083E091710288
:10103000F0917202808180688083E0917102F0916A
:10104000720280818F7D80834E0189E0880E911C21
:1010500040900A0150900B0160900C0170900D01BE
:1010600050E0252E50E0352E8FE592E00E945F0182
:10107000892B09F401C20E94C204853409F48FC38C
:1010800008F0E6C0803309F462C108F041C0803244
:1010900009F452C198F48D3009F460C180915B026B
:1010A00090915C02019690935C0280935B020E9497
:1010B000C204803209F049C182E13EC0813209F4A4
:1010C000FAC1833259F782E090E00E94FD048091DA
:1010D000570190ED980F9A3008F0CEC11091580149
:1010E00090ED910F9A3008F0C7C110519AE0899F96
:1010F000100D1124109300018CEB93E00E94150356
:10110000812F0E94AD008CEB93E00E941503B4C1C7
:101110008F3309F406C298F4813309F0BFCF0E94DF
:10112000C204803209F008C184E10E94EC0083E22D
:1011300091E00E94A20680E10E94EC009DC18134F2
:1011400009F416C3823409F0A9CF84E190E00E942B
:10115000FD04209157012093440180915801809310
:101160004501809159018093460180915A018093F5
:10117000470180915B018093480180915C018093DD
:10118000490180915D0180934A0180915E018093C5
:101190004B0180915F0180934C018091610190E04F
:1011A000982F882730916201830F911D90934E01F3
:1011B00080934D018091630190E0982F88273091B2
:1011C0006401830F911D9093500180934F01809192
:1011D000650190E0982F882730916601830F911D5B
:1011E00090935201809351018091670190E0B0E0AB
:1011F000A0E0BA2FA92F982F882730916801830F7C
:10120000911DA11DB11DDC0199278827409169011D
:1012100050E0542F4427052E000C660B770B840FEB
:10122000951FA61FB71F30916A01830F911DA11D45
:10123000B11D8093530190935401A0935501B09335
:10124000560181E0203E08F480E08093430183C092
:101250008B3509F433C108F057C0813509F4A4C3B4
:10126000F0F5803509F01ACF8091590290915A0219
:10127000892B09F070C081E00E94830640E061E0A4
:1012800090E080E00E94CE0540E062E090E080E0E7
:101290000E942D0664E170E080E090E00E942F043F
:1012A00080E00E94830684E690E00E94710281E063
:1012B0000E94830662E370E080E090E00E942F04C9
:1012C0000E948E0620E040E063E58CEA0E94AE04B6
:1012D00081E090E090935A02809359023CC085359A
:1012E00009F462C2863509F0D9CE84E090E00E940C
:1012F000FD0420915A01409159016091580180915B
:1013000057010E94AE0444C2843609F45FC248F417
:10131000803609F458C2813609F0C0CE0E94C2045A
:101320001AC0843709F4E5C2853709F0B7CE0E94A8
:10133000C204803209F45CC380915B0290915C022C
:10134000019690935C0280935B0285E1F5CE10924A
:101350005C0210925B020E94E8048EC049825A82AD
:101360006B827C8242E061E081E091E00E94CE05E8
:1013700081E00E94830664E170E080E090E00E94DA
:101380002F0480E00E9483066CED75E080E090E021
:101390000E942F0440E062E090E080E00E942D0671
:1013A00040E061E090E080E00E942D060E948E0601
:1013B00000E010E0FF24F394112349F1101708F026
:1013C00071C0E1E0F0E0EC0FFD1FE10FF11D808145
:1013D0001F5F682F80915D0290915E020E94F6026D
:1013E00080915D0290915E020E94A702909141015E
:1013F000911105C08F3009F45BC08F3FE9F2682F6F
:101400008FE592E00E94880110924101D5CF8FE5CF
:1014100092E00E945F01892B09F448C08FE592E0B9
:101420000E94510190914201911104C08F3081F1CD
:101430008F3F71F18FE592E00E943E0110924201D0
:1014400090910901992341F1E1E0F0E0EC0FFD1FDB
:10145000E00FF11D908198131FC00F5F043030F131
:1014600040E061E090E080E00E94CE0540E062E074
:1014700090E080E00E94CE052114310409F4F4CDFF
:101480000E94F501882309F4EFCD0E940000ECCD05
:10149000F09242018FE0D4CF002331F08987898117
:1014A00011E097CF898500E010E093CF8FEF91CFC7
:1014B000F092410181CF10920901DECF81E190E0ED
:1014C0000E94FD04809167018D35B1F6A7E5B1E07A
:1014D00030E020E0F901F595E795EF5FFE4F908150
:1014E0009295907F90838D9140ED480F4A3010F493
:1014F000942B90839FE9980F963028F4908149EAC5
:10150000480F942B90839FEB980F963020F48753CD
:101510009081892B80832F5F3F4F20313105D1F699
:10152000ABCF8BE291E00E94A206809100011AE00D
:10153000612F0E94170D682F70E090E080E04AE074
:101540000E94B50680910001612F0E94170D692F3E
:1015500070E090E080E04AE00E94B50680E291E011
:101560000E94A2061092C7031092C9031092C803EA
:101570001092C6031092C5031092C4031092C303C5
:101580001092C2031092C1031092C0031092BF03C5
:10159000B12C8091C90381112BC08CEB93E00E9488
:1015A0001503882329F160EF8CEB93E00E94F6028B
:1015B00001E0E12CD12C11E08CEB93E00E94790248
:1015C000F82E8CEB93E00E947902A1E0FA1251C050
:1015D000813009F06DC0113458F0D092C703D1109A
:1015E00003C0E1E0E093C9038091BF03811178C09B
:1015F0001092C7031092C9031092C8031092C60339
:101600001092C5031092C4031092C3031092C20338
:101610001092C1031092C0031092BF03B1FC2CCFF3
:101620008DE291E00E94A20601E011E0F8016191D3
:101630008F0170E084E0759567958A95E1F7072E34
:10164000000C880B990B40E10E94B506F801319718
:1016500060816F7070E090E080E040E10E94B5062C
:10166000F1E009301F0711F784E391E00E94F906C9
:1016700003CFEE2DF0E0F81211C08091C7031817C8
:10168000A8F4DF01A454BC4F13968C91802381F4FD
:10169000F12C193010F41093C803D12EE454FC4FF0
:1016A0008381902F9095892383830BC08113F0CF82
:1016B000EE2DF0E0E454FC4F8381802B8383FF24E4
:1016C000F3946F2D8CEB93E00E94C3021F5F000F19
:1016D00011F4E39401E0B7E0BE1508F06DCF7BCFC5
:1016E000EFEBF3E08E010F5F1F4F78018191D7017F
:1016F0008D937D01A815B905C9F76894B0F88DE2FE
:1017000091E00E94A20621E0C22E21E0D22EF80133
:10171000A1908F016A2D70E094E0759567959A9578
:10172000E1F7072E000C880B990B40E10E94B506EB
:101730006A2D6F7070E090E080E040E10E94B50695
:10174000D6018D916D01A81611F0E894B0F8E0165D
:10175000F106E9F6B0FE07C08FE291E00E94F906BB
:101760006894B1F816CF82E391E00E94F90611CF98
:101770000E94C204813879F020F4803841F080E082
:1017800007C0823851F08339D1F783E501C082E088
:101790000E94CD0471CE81E0FBCF82E1F9CF85E0DC
:1017A00090E00E94FD04D7CD0E94C204182F0E9431
:1017B000C20490E0982F8827810F911D90935802C2
:1017C00080935702C8CD0E94C204A8CD0E94C204D3
:1017D000082F10E0102F00270E94C204080F111DCF
:1017E0000E94C204863409F04AC0C8010E94FD0468
:1017F0000E94C204803209F09FCD84E10E94EC0077
:101800000E9492046C0137E5A32E31E0B32EC5018E
:1018100087559140801791075CF50E9492048C15C2
:101820009D0549F020E04C2D6D2D8CE40E94AE0406
:101830000E9492046C01E0905702F0905802D5018A
:101840002C914E2D6F2D80E40E94AE04F501218174
:101850004E2D6F2D88E40E94AE04FFEFEF1AFF0AB1
:10186000F0925802E092570282E0A80EB11CCFCF4E
:1018700020E04C2D6D2D8CE40E94AE045CCC8534B0
:1018800009F090C080915101909152018017910709
:10189000A0F0E0905702F0905802EE0CFF1C0132CD
:1018A0001105F0F060E270E0C7010E94130590E2BC
:1018B000E90EF11C00521109F2CF80915B02909168
:1018C0005C02019690935C0280935B0211E10E949E
:1018D000C204803259F484E10E94EC00812F2CCCA8
:1018E000B801C7010E94130510E1F1CF0E94610405
:1018F000C3CD0E94C204E82E0E94C204082F0E9499
:10190000C204182F0E94C204803219F00E946104A0
:10191000B3CDF12CFE2CEE24E00EF11C84E10E94EC
:10192000EC00163431F510E000E00E151F050CF048
:1019300002CC409157026091580220E080E20E9460
:10194000AE040E94EC00409157026091580220E0E2
:1019500088E20E94AE040E94EC00809157029091B0
:101960005802019690935802809357020E5F1F4FC2
:10197000DCCF1534B9F40091570210915802000FD2
:10198000111FE00EF11EE016F10609F4D4CB2FEF83
:10199000402F612F80EA0E94AE040E94EC000F5F8E
:1019A0001F4FF1CF81E1C8CB10925C0210925B0215
:1019B00040E061E081E091E00E94CE0540E064E01B
:1019C00090E080E00E94CE0540E062E090E080E0A0
:1019D0000E94CE0580E00E94830640E060E090E037
:1019E00080E00E94CE0510925A0210925902B3CCA8
:1019F00084E10E94EC0020E040E060E080E30E948F
:101A0000AE040E94EC0020E041E060E080E30E9430
:101A1000AE040E94EC0020E042E060E080E30E941F
:101A2000AE040E94EC0087CBF8940C944B0D991BEC
:101A300079E004C0991F961708F0961B881F7A95C5
:101A4000C9F780950895A1E21A2EAA1BBB1BFD01C0
:101A50000DC0AA1FBB1FEE1FFF1FA217B307E4078D
:101A6000F50720F0A21BB30BE40BF50B661F771FE5
:101A7000881F991F1A9469F76095709580959095C5
:101A80009B01AC01BD01CF010895EE0FFF1F059032
:0A1A9000F491E02D0994F894FFCFC3
:101A9A0007555555555555555501302030200000EC
:101AAA000000880109022F01D5015F013E015101A1
:101ABA000D0A00415652204953500023005B005D35
:081ACA003C005D005D3F0000DF
:00000001FF
