:100000000C945B000C9483000C9483000C9483008C
:100010000C9483000C9483000C9483000C94830054
:100020000C9483000C9483000C9483000C94830044
:100030000C9483000C9483000C9483000C94830034
:100040000C94E0060C9489060C9483000C948300B5
:100050000C9483000C9483000C9483000C94830014
:100060000C9483000C9483000000000025002800FD
:100070002B0000000000240027002A00081F0A0CA3
:100080000E000000002300260029000404040404DC
:100090000404040202020202020303030303030135
:1000A000020408102040800102040810200102040C
:1000B000081020004B0711241FBECFEFD8E0DEBF91
:1000C000CDBF11E0A0E0B1E0EEE1F9E102C00590A2
:1000D0000D92A833B107D9F723E0A8E3B1E001C03E
:1000E0001D92AF37B207E1F710E0CBE5D0E004C0D6
:1000F0002197FE010E94870CCA35D107C9F70E94DB
:100100004F070C94560C0C940000E0915F02F091A4
:1001100060020190F081E02D682F8FE592E0099454
:10012000CF93DF9390E0FC01E156FF4F2491855778
:100130009F4FFC0184918823C9F090E0880F991F9C
:10014000FC01EE58FF4FA591B491FC01E859FF4F17
:10015000C591D49161110DC09FB7F8948C912095F1
:1001600082238C938881282328839FBFDF91CF919E
:100170000895623051F49FB7F8943C91822F809596
:1001800083238C93E8812E2BEFCF8FB7F894EC91DB
:100190002E2B2C938FBFEACFCF93DF93C82F60E035
:1001A0000E949000D0E0FE01E156FF4FE491A1E7EC
:1001B000B3E0EC93FE01E557FF4FE491F0E0EE0F62
:1001C000FF1FEF57FF4F8591949112969C938E934A
:1001D00011971B961C921B971D961C921D971C969F
:1001E0001C921C971A961C921A9719961C92199792
:1001F00018961C92189717961C92179716961C9291
:10020000169715961C92159714961C921497139690
:100210001C92DF91CF910895FC01F894A181B281E5
:1002200011968C91119790819095982311969C939B
:10023000A181B28112968C9112979081892B12968E
:100240008C9378940895FC01680F791FCA01E61712
:10025000F707C9F021918227282F22952827022EFF
:10026000269526952025022E269520252770082ED6
:10027000892F269507942795902D822706942795F8
:1002800090258227E4CF0895FC0196859F5F9F7794
:100290008785891759F0A685AE0FBF2FB11DAE56C1
:1002A000BF4F6C93968781E090E0089590E080E0E6
:1002B00008950895FC0194858585981761F0A585BA
:1002C000AE0FBF2FB11D52968C9195859F5F9F7782
:1002D000958790E008958FEF9FEF0895FC01948536
:1002E0008585981731F08585E80FF11D828990E0AA
:1002F00008958FEF9FEF0895FC0194852585892F40
:1003000090E080589F4F821B91098F77992708951D
:10031000AF92BF92CF92DF92EF92FF920F931F9313
:10032000CF93DF936C017B018B01040F151FEB0151
:100330005E01AE18BF08C017D10759F06991D60108
:10034000ED91FC910190F081E02DC6010995892B7A
:1003500079F7C501DF91CF911F910F91FF90EF9039
:10036000DF90CF90BF90AF90089590E080E0089527
:10037000789484B5826084BD84B5816084BD85B580
:10038000826085BD85B5816085BDEEE6F0E0808147
:1003900081608083E1E8F0E0108280818260808368
:1003A000808181608083E0E8F0E0808181608083EB
:1003B000E1EBF0E0808184608083E0EBF0E080811D
:1003C00081608083EAE7F0E08081846080838081BF
:1003D0008260808380818160808380818068808367
:1003E0001092C1000895880F991F880F991F0597D3
:1003F0000197F1F708950F931F93CF93DF93FC01BB
:100400001081C181D281F8948A81012F00958023C7
:100410008A838981812B898383E090E00E94F301A4
:100420008981802389838A81812B8A838AE090E075
:100430000E94F301C881789485E390E00E94F30163
:100440001C2381E009F480E0DF91CF911F910F918F
:100450000895EF92FF920F931F93CF93DF937C0148
:1004600008E010E0C0E0D1E0C7010E94FB0181116B
:10047000CD2BDD0F01501109B9F78C2FDF91CF91F2
:100480001F910F91FF90EF9008951F93CF93DF93EB
:10049000FC011081C181D281912F909560FF16C01F
:1004A000F8948A8189238A838981812B89838AE0D0
:1004B00090E00E94F3018A81182B1A83789487E3D5
:1004C00090E0DF91CF911F910C94F301F8948A8111
:1004D00089238A838981812B898381E490E00E942A
:1004E000F3018A81182B1A83789485E090E0E9CF94
:1004F000EF92FF920F931F93CF93DF937C01062F10
:10050000C8E0D0E011E061E0802F812309F460E0D1
:10051000C7010E944502110F2197A9F7C701DF917A
:10052000CF911F910F91FF90EF900C940C01FF92CF
:100530000F931F93CF93DF93FC011081C181D28170
:10054000F8948A81812B8A838981012F00958023E9
:10055000898378948DE7F82EFA94FF2079F182E070
:1005600090E00E94F30188818123B1F3F8948A819D
:1005700080238A838981812B8983789480EE91E01E
:100580000E94F301F8948A81812B8A8389818023D8
:10059000898386E490E00E94F30188811823C1E0FA
:1005A00009F0C0E078948AE991E00E94F3018C2F71
:1005B000DF91CF911F910F91FF900895C0E0F7CF89
:1005C0008F929F92AF92BF92CF92DF92EF92FF9263
:1005D0000F931F93CF93DF9300D01F92CDB7DEB759
:1005E0008C01A62EF72EE42EB22E80915D02909102
:1005F0005E020E949702C0905D02D0905E020115DB
:10060000110509F482C065E5C6010E94780248011F
:1006100088E0880E911CF80161918F01C6010E944B
:10062000780208151905B9F78AEA8983EA821B82DC
:1006300000915D0210915E026AEAC8010E94780290
:100640006A81C8010E9478026B81C8010E94780209
:10065000C8010E940C0150E040E063E070E0CE0170
:1006600001960E9423016C010A2D1F2DBE0CFE2C49
:10067000902EA12E80915D0290915E020E9429022F
:10068000F80181938F01A60161E070E0892D9A2D18
:100690000E9423016C01F3948F2D877011F58090D7
:1006A0005D0290905E02C4010E9429028983C40108
:1006B0000E9429028A83A60170E060E090E080E059
:1006C0000E94230180959095298130E082171306BE
:1006D00009F5892F99272A8128171906D9F4D12CD1
:1006E000C12C8F2D8E19FB10C3CF0F900F900F9040
:1006F000DF91CF911F910F91FF90EF90DF90CF90FE
:10070000BF90AF909F908F90089565EAC6010E94B8
:1007100078028ACF80E0E9CF3FB7F89480913D011D
:1007200090913E01A0913F01B091400126B5A89B58
:1007300005C02F3F19F00196A11DB11D3FBFBA2F73
:10074000A92F982F8827BC01CD01620F711D811D33
:10075000911D42E0660F771F881F991F4A95D1F7B8
:1007600008958F929F92AF92BF92CF92DF92EF92B5
:10077000FF924B015C010E948C036B017C010E9483
:100780008C036C197D098E099F09683E73408105B1
:100790009105A8F321E0821A9108A108B10888EE1A
:1007A000C80E83E0D81EE11CF11C81149104A10441
:1007B000B10429F7FF90EF90DF90CF90BF90AF90FA
:1007C0009F908F90089580915B0290915C020196BA
:1007D00090935C0280935B0285E10C948500880F06
:1007E000811D982F990F911D990F98279A7A892723
:1007F000982F929598279C7C89270895CF93DF9313
:10080000C0915D02D0915E020E94EF03682FCE017D
:100810000E94780280915D0290915E020E942902FE
:10082000DF91CF910C94EF0320914F013091500153
:1008300080915702909158022032310511F4807F47
:1008400008952034310511F4807E08952038310553
:1008500011F4807C08952115314009F480780895C1
:100860001F93CF93DF93162FD42FC22F0E94FE0326
:10087000812F0E94FE038D2F0E94FE038C2FDF919B
:10088000CF911F910C94FE038FE592E00E947C01B2
:10089000892BD1F38FE592E00E945A010895CF93FE
:1008A000C82F0E944404803251F484E10E948500E4
:1008B0008C2F0E94850080E1CF910C94850080915F
:1008C0005B0290915C02019690935C0280935B02C4
:1008D00085E1F2CF0E944404803231F484E10E9429
:1008E000850080E10C94850080915B0290915C0210
:1008F000019690935C0280935B0285E1F3CF0F93A6
:100900001F93CF93DF938C01C7E5D1E0CE018755CC
:1009100091408017910724F40E9444048993F6CFF4
:10092000DF91CF911F910F910895EF92FF920F9356
:100930001F93CF93DF93EC018B01CB010E947F04C7
:1009400087E5E82E81E0F82E0C0F1D1FC017D10798
:1009500081F0F70121917F014C2F6D2F80EC0E94D7
:1009600030046DE270E080E090E00E94B1032196D7
:10097000EDCF80E1DF91CF911F910F91FF90EF902C
:1009800008959F92AF92BF92CF92DF92EF92FF9223
:100990000F931F93CF93DF9300D01F92CDB7DEB795
:1009A000A82EF92E962EE42E80915D0290915E0283
:1009B0000E94970265EA80915D0290915E020E941A
:1009C000780285E589839A821B8200915D021091ED
:1009D0005E0265E5C8010E9478026A81C8010E9432
:1009E00078026B81C8010E947802C8010E940C0144
:1009F00050E040E063E070E0CE0101960E942301E8
:100A00006C010A2D1F2DF12C93945801F80160817F
:100A10000F5F1F4F80915D0290915E020E947802ED
:100A2000A60161E070E0C5010E9423016C01C09441
:100A3000D09480915D0290915E020E9429029601FD
:100A4000332782171306E1F480915D0290915E02D4
:100A50000E942902CD2CDD248C151D0489F480917F
:100A60005D0290915E020E942902F8013197908107
:100A7000891306C0C92CCF0CD12CF394EF10C5CF2D
:100A80008F2D0F900F900F90DF91CF911F910F91AD
:100A9000FF90EF90DF90CF90BF90AF909F90089520
:100AA000FF920F931F93CF93DF93CDB7DEB72897B5
:100AB0000FB6F894DEBF0FBECDBF062FF42EE62F83
:100AC000F0E0E458FF4F1491212F209527702F5FFD
:100AD000412FBE016F5F7F4F0E94E002982F882355
:100AE00089F18981982F9F73FF2031F092E0F912EC
:100AF00007C08F73982F90640130D1F49B7F18C08A
:100B0000982F0130A1F49B7F9068807C8068803CA6
:100B100079F48FEF89839A8342E06EE1CE010196EA
:100B20000E94C10491E0823069F090E00BC09068AF
:100B3000998341E0612FCE0101960E94C10491E0AA
:100B4000813099F7892F28960FB6F894DEBF0FBE33
:100B5000CDBFDF91CF911F910F91FF900895FF922C
:100B60000F931F93CF93DF93CDB7DEB728970FB6C0
:100B7000F894DEBF0FBECDBF062FF42EE62FF0E0B7
:100B8000E458FF4F1491212F209527702F5F412F9C
:100B9000BE016F5F7F4F0E94E002982F882311F102
:100BA0008981982F9F73FF2051F1906C013061F083
:100BB000998341E0612FCE0101960E94C10491E02A
:100BC000813081F090E00EC09FEF99838B73806C31
:100BD0008A8342E06EE1CE0101960E94C10491E059
:100BE000823081F7892F28960FB6F894DEBF0FBEAA
:100BF000CDBFDF91CF911F910F91FF9008950130EC
:100C000011F48B73982F9068D3CF409143018111D9
:100C100002C081E0482760E081E091E00C94AF05DC
:100C200080915D0290915E020E94970265EA809138
:100C30005D0290915E020E9478026AE580915D02F9
:100C400090915E020C947802FC0101900020E9F77B
:100C50003197AF01481B590BE0915F02F0916002A0
:100C60000280F381E02DBC018FE592E009948F9220
:100C70009F92AF92BF920F931F93CF93DF93CDB705
:100C8000DEB7A1970FB6F894DEBF0FBECDBF19A295
:100C9000423008F44AE08E010F5D1F4F842E912CE4
:100CA000B12CA12CA50194010E94650CE62FB9017D
:100CB000CA01EA30F4F4E05DD801EE938D01232BF4
:100CC000242B252B79F790E080E0109719F0CD01C7
:100CD0000E942406A1960FB6F894DEBF0FBECDBFCA
:100CE000DF91CF911F910F91BF90AF909F908F9008
:100CF0000895E95CE1CFCF93DF930E942406EC01D5
:100D000080E291E00E9424068C0F9D1FDF91CF911D
:100D100008951F920F920FB60F9211242F938F9365
:100D20009F93EF93FF939EB580916F02811104C052
:100D30009F30D9F19F3F91F080916B028F5F8F7749
:100D400020916C02821741F0E0916B02F0E0E15AD1
:100D5000FD4F928B80936B0210926F0290916D0207
:100D600080916E02981751F1E0916E02F0E0EF5021
:100D7000FD4F808190917002911104C08F30C9F0B5
:100D80008F3FB9F090916E029F5F9F7790936E02B4
:100D9000109270028EBDFF91EF919F918F912F91D4
:100DA0000F900FBE0F901F90189581E080936F02F7
:100DB000D5CF81E0809370028FE0ECCF8FEFEACF48
:100DC0001F920F920FB60F9211242F933F938F9380
:100DD0009F93AF93BF938091390190913A01A09175
:100DE0003B01B0913C013091380123E0230F2D37B6
:100DF00058F50196A11DB11D20933801809339014A
:100E000090933A01A0933B01B0933C0180913D0146
:100E100090913E01A0913F01B09140010196A11D2A
:100E2000B11D80933D0190933E01A0933F01B0938B
:100E30004001BF91AF919F918F913F912F910F9062
:100E40000FBE0F901F90189526E8230F0296A11D44
:100E5000B11DD2CFEFE5F2E01382128288EE93E06B
:100E6000A0E0B0E084839583A683B78382E191E01C
:100E7000918380831486158616861786108A118AB8
:100E8000089587E00E94CC0081E793E090935E0292
:100E900080935D0208950E942A070C944107CF9326
:100EA000DF93CDB7DEB729970FB6F894DEBF0FBE3C
:100EB000CDBF0E94B80162E08AE00E94900060E02D
:100EC0008DE00E94900061E08CE00E94900060E064
:100ED0008BE00E94900080EE8CBD4E0189E0880E70
:100EE000911C40900A0150900B0160900C01709091
:100EF0000D0122242394312C8FE592E00E947C0185
:100F0000892B09F4FDC10E944404853409F487C388
:100F100008F0E4C0803309F45EC108F041C08032BB
:100F200009F44EC198F48D3009F45CC180915B02E4
:100F300090915C02019690935C0280935B020E9408
:100F40004404803209F045C182E109C4813209F4C8
:100F5000F2C1833259F782E090E00E947F048091D1
:100F6000570190ED980F9A3008F0CAC110915801BE
:100F700090ED910F9A3008F0C3C110519AE0899F0B
:100F8000100D11241093000181E793E00E94970255
:100F9000812F0E94CC0081E793E00E949702B0C1AC
:100FA0008F3309F4FEC188F4813309F0BFCF0E946A
:100FB0004404803209F004C184E10E94850083E288
:100FC00091E00E94240680E1CAC3813409F410C371
:100FD000823409F0ABCF84E190E00E947F0420913D
:100FE00057012093440180915801809345018091DD
:100FF00059018093460180915A0180934701809165
:101000005B018093480180915C018093490180914C
:101010005D0180934A0180915E0180934B01809134
:101020005F0180934C018091610190E0982F8827A7
:1010300030916201830F911D90934E0180934D0179
:101040008091630190E0982F882730916401830F8D
:10105000911D9093500180934F018091650190E024
:10106000982F882730916601830F911D909352012C
:10107000809351018091670190E0B0E0A0E0BA2F29
:10108000A92F982F882730916801830F911DA11DEA
:10109000B11DDC01992788274091690150E0542F48
:1010A0004427052E000C660B770B840F951FA61F97
:1010B000B71F30916A01830F911DA11DB11D80934F
:1010C000530190935401A0935501B093560181E0D0
:1010D000203E08F480E08093430181C08B3509F401
:1010E0002DC108F055C0813509F4A0C3E0F5803565
:1010F00009F01CCF8091590290915A02892B09F076
:101100006EC081E00E94050640E061E090E080E072
:101110000E94500540E062E090E080E00E94AF0550
:1011200064E170E080E090E00E94B10380E00E9402
:10113000050684E690E00E94F30181E00E94050626
:1011400062E370E080E090E00E94B1030E9410062C
:1011500020E040E063E58CEA0E94300430925A02BD
:10116000209259023CC0853509F45EC2863509F0EB
:10117000DDCE84E090E00E947F0420915A014091EE
:10118000590160915801809157010E94300440C27A
:10119000843609F45BC248F4803609F454C28136BF
:1011A00009F0C4CE0E9444041AC0843709F4E3C293
:1011B000853709F0BBCE0E944404803209F45AC33B
:1011C00080915B0290915C02019690935C02809307
:1011D0005B0285E1C4C210925C0210925B020E9425
:1011E0006A048EC049825A826B827C8242E061E04E
:1011F00081E091E00E94500581E00E94050664E1D3
:1012000070E080E090E00E94B10380E00E9405065B
:101210006CED75E080E090E00E94B10340E062E098
:1012200090E080E00E94AF0540E061E090E080E067
:101230000E94AF050E94100600E010E0FF24F39426
:10124000112349F1101708F06DC0E1E0F0E0EC0F58
:10125000FD1FE10FF11D80811F5F682F80915D02EE
:1012600090915E020E94780280915D0290915E02F0
:101270000E94290290914101911105C08F3009F41B
:1012800057C08F3FE9F2682F8FE592E00E9444013A
:1012900010924101D5CF8FE592E00E947C01892B0D
:1012A00009F444C08FE592E00E946E0190914201E2
:1012B000911104C08F3061F18F3F51F18FE592E0C1
:1012C0000E945A011092420190910901992321F143
:1012D000E1E0F0E0EC0FFD1FE00FF11D90819813AD
:1012E0001BC00F5F043010F140E061E090E080E04F
:1012F0000E94500540E062E090E080E00E945005CE
:10130000A0E0B0E0AB2B09F4F7CD0E940000F4CDD3
:10131000F09242018FE0D8CF002331F08987898194
:1013200011E09BCF898500E010E097CF8FEF95CF3C
:10133000F092410185CF10920901E2CF81E190E066
:101340000E947F04809167018D35D1F6A7E5B1E059
:1013500030E020E0F901F595E795EF5FFE4F9081D1
:101360009295907F90838D9140ED480F4A3010F414
:10137000942B90839FE9980F963028F4908149EA46
:10138000480F942B90839FEB980F963020F487534F
:101390009081892B80832F5F3F4F20313105D1F61B
:1013A000AFCF8BE291E00E942406809100011AE009
:1013B000612F0E94590C682F70E090E080E04AE0B5
:1013C0000E94370680910001612F0E94590C692FFD
:1013D00070E090E080E04AE00E94370680E291E011
:1013E0000E94240610927C0310927E0310927D03CB
:1013F00010927B0310927A03109279031092780373
:101400001092770310927603109275031092740372
:10141000B12C80917E0381112BC081E793E00E9463
:101420009702882329F160EF81E793E00E94780218
:1014300001E0E12CD12C11E081E793E00E94FB0157
:10144000F82E81E793E00E94FB01A1E0FA1251C05F
:10145000813009F06DC0113458F0D0927C03D11066
:1014600003C0E1E0E0937E0380917403811178C0B2
:1014700010927C0310927E0310927D0310927B03E6
:1014800010927A03109279031092780310927703E6
:10149000109276031092750310927403B1FC30CF52
:1014A0008DE291E00E94240601E011E0F8016191D3
:1014B0008F0170E084E0759567958A95E1F7072EB6
:1014C000000C880B990B40E10E943706F801319718
:1014D00060816F7070E090E080E040E10E9437062C
:1014E000F1E009301F0711F784E391E00E947B06C9
:1014F00007CFEE2DF0E0F81211C080917C03181791
:10150000A8F4DF01AF58BC4F13968C91802381F46F
:10151000F12C193010F410937D03D12EEF58FC4FAD
:101520008381902F9095892383830BC08113F0CF03
:10153000EE2DF0E0EF58FC4F8381802B8383FF2456
:10154000F3946F2D81E793E00E9445021F5F000F27
:1015500011F4E39401E0B7E0BE1508F06DCF7BCF46
:10156000E4E7F3E08E010F5F1F4F78018191D7010F
:101570008D937D01A815B905C9F76894B0F88DE27F
:1015800091E00E94240621E0C22E21E0D22EF80133
:10159000A1908F016A2D70E094E0759567959A95FA
:1015A000E1F7072E000C880B990B40E10E943706EB
:1015B0006A2D6F7070E090E080E040E10E94370695
:1015C000D6018D916D01A81611F0E894B0F8E016DF
:1015D000F106E9F6B0FE07C08FE291E00E947B06BB
:1015E0006894B1F816CF82E391E00E947B0611CF98
:1015F0000E944404813879F020F4803841F080E082
:1016000007C0823851F08339D1F783E501C082E009
:101610000E944F0475CE81E0FBCF82E1F9CF85E0D7
:1016200090E00E947F04DBCD0E944404182F0E94AA
:10163000440490E0982F8827810F911D90935802C1
:1016400080935702CCCD0E944404ACCD0E94440448
:10165000082F10E0102F00270E944404080F111DCE
:101660000E944404863409F04AC0C8010E947F04E5
:101670000E944404803209F0A3CD84E10E948500D9
:101680000E9414046C0137E5A32E31E0B32EC5018E
:1016900087559140801791075CF50E9414048C15C2
:1016A0009D0549F020E04C2D6D2D8CE40E94300406
:1016B0000E9414046C01E0905702F0905802D5018A
:1016C0002C914E2D6F2D80E40E943004F501218174
:1016D0004E2D6F2D88E40E943004FFEFEF1AFF0AB1
:1016E000F0925802E092570282E0A80EB11CCFCFD0
:1016F00020E04C2D6D2D8CE40E94300464CC8534A8
:1017000009F092C080915101909152018017910788
:10171000A0F0E0905702F0905802EE0CFF1C01324E
:10172000110500F160E270E0C7010E94950490E2AB
:10173000E90EF11C00521109F2CF80915B029091E9
:101740005C02019690935C0280935B0211E10E941F
:101750004404803269F484E10E948500812F0E9454
:101760008500CECDB801C7010E94950410E1EFCFEE
:101770000E94E303C5CD0E944404E82E0E94440465
:10178000082F0E944404182F0E944404803219F04C
:101790000E94E303B5CDF12CFE2CEE24E00EF11CEB
:1017A00084E10E948500163431F510E000E00E154A
:1017B0001F050CF008CC409157026091580220E0C0
:1017C00080E20E9430040E9485004091570260919F
:1017D000580220E088E20E9430040E948500809137
:1017E00057029091580201969093580280935702A5
:1017F0000E5F1F4FDCCF1534B9F4009157021091E2
:101800005802000F111FE00EF11EE016F10609F458
:10181000DACB2FEF402F612F80EA0E9430040E9424
:1018200085000F5F1F4FF1CF81E199CF10925C02CD
:1018300010925B0240E061E081E091E00E9450057F
:1018400040E064E090E080E00E94500540E062E00B
:1018500090E080E00E94500580E00E94050640E094
:1018600060E090E080E00E94500510925A021092D1
:101870005902B5CC84E10E94850020E040E060E0A0
:1018800080E30E9430040E94850020E041E060E097
:1018900080E30E9430040E94850020E042E060E086
:1018A00080E30E9430040E9485008DCBF8940C9454
:1018B0008D0C991B79E004C0991F961708F0961BB0
:1018C000881F7A95C9F780950895A1E21A2EAA1B60
:1018D000BB1BFD010DC0AA1FBB1FEE1FFF1FA217E0
:1018E000B307E407F50720F0A21BB30BE40BF50BDD
:1018F000661F771F881F991F1A9469F76095709566
:10190000809590959B01AC01BD01CF010895EE0F2C
:0E191000FF1F0590F491E02D0994F894FFCF8D
:10191E000755555555555555550130203020000069
:10192E00000044018801B50159017C015A016E0184
:10193E000D0A00415652204953500023005B005DB2
:08194E003C005D005D3F00005C
:00000001FF
